{
  "contractName": "SubdomainStore",
  "abi": [
    {
      "inputs": [],
      "stateMutability": "nonpayable",
      "type": "constructor"
    },
    {
      "anonymous": false,
      "inputs": [
        {
          "indexed": true,
          "internalType": "address",
          "name": "previousOwner",
          "type": "address"
        },
        {
          "indexed": true,
          "internalType": "address",
          "name": "newOwner",
          "type": "address"
        }
      ],
      "name": "OwnershipTransferred",
      "type": "event"
    },
    {
      "inputs": [],
      "name": "TLD_NODE",
      "outputs": [
        {
          "internalType": "bytes32",
          "name": "",
          "type": "bytes32"
        }
      ],
      "stateMutability": "view",
      "type": "function",
      "constant": true
    },
    {
      "inputs": [
        {
          "internalType": "bytes32",
          "name": "",
          "type": "bytes32"
        }
      ],
      "name": "domains",
      "outputs": [
        {
          "internalType": "string",
          "name": "name",
          "type": "string"
        },
        {
          "internalType": "uint256",
          "name": "price",
          "type": "uint256"
        }
      ],
      "stateMutability": "view",
      "type": "function",
      "constant": true
    },
    {
      "inputs": [],
      "name": "ens",
      "outputs": [
        {
          "internalType": "contract ENS",
          "name": "",
          "type": "address"
        }
      ],
      "stateMutability": "view",
      "type": "function",
      "constant": true
    },
    {
      "inputs": [],
      "name": "owner",
      "outputs": [
        {
          "internalType": "address",
          "name": "",
          "type": "address"
        }
      ],
      "stateMutability": "view",
      "type": "function",
      "constant": true
    },
    {
      "inputs": [],
      "name": "renounceOwnership",
      "outputs": [],
      "stateMutability": "nonpayable",
      "type": "function"
    },
    {
      "inputs": [
        {
          "internalType": "address",
          "name": "newOwner",
          "type": "address"
        }
      ],
      "name": "transferOwnership",
      "outputs": [],
      "stateMutability": "nonpayable",
      "type": "function"
    },
    {
      "inputs": [
        {
          "internalType": "string",
          "name": "name",
          "type": "string"
        },
        {
          "internalType": "uint256",
          "name": "price",
          "type": "uint256"
        }
      ],
      "name": "configureDomainFor",
      "outputs": [],
      "stateMutability": "nonpayable",
      "type": "function"
    },
    {
      "inputs": [
        {
          "internalType": "string",
          "name": "name",
          "type": "string"
        },
        {
          "internalType": "uint256",
          "name": "price",
          "type": "uint256"
        }
      ],
      "name": "configureDomain",
      "outputs": [],
      "stateMutability": "nonpayable",
      "type": "function"
    },
    {
      "inputs": [
        {
          "internalType": "string",
          "name": "name",
          "type": "string"
        },
        {
          "internalType": "address",
          "name": "resolver",
          "type": "address"
        }
      ],
      "name": "setResolver",
      "outputs": [],
      "stateMutability": "nonpayable",
      "type": "function"
    },
    {
      "inputs": [
        {
          "internalType": "bytes32",
          "name": "label",
          "type": "bytes32"
        },
        {
          "internalType": "string",
          "name": "subdomain",
          "type": "string"
        },
        {
          "internalType": "address",
          "name": "_subdomainOwner",
          "type": "address"
        },
        {
          "internalType": "address",
          "name": "resolver",
          "type": "address"
        }
      ],
      "name": "register",
      "outputs": [],
      "stateMutability": "nonpayable",
      "type": "function"
    },
    {
      "inputs": [
        {
          "internalType": "address",
          "name": "",
          "type": "address"
        },
        {
          "internalType": "address",
          "name": "",
          "type": "address"
        },
        {
          "internalType": "uint256",
          "name": "",
          "type": "uint256"
        },
        {
          "internalType": "bytes",
          "name": "",
          "type": "bytes"
        }
      ],
      "name": "onERC721Received",
      "outputs": [
        {
          "internalType": "bytes4",
          "name": "",
          "type": "bytes4"
        }
      ],
      "stateMutability": "nonpayable",
      "type": "function"
    },
    {
      "inputs": [
        {
          "internalType": "address",
          "name": "from",
          "type": "address"
        },
        {
          "internalType": "uint256",
          "name": "",
          "type": "uint256"
        },
        {
          "internalType": "address",
          "name": "token",
          "type": "address"
        },
        {
          "internalType": "bytes",
          "name": "data",
          "type": "bytes"
        }
      ],
      "name": "receiveApproval",
      "outputs": [],
      "stateMutability": "nonpayable",
      "type": "function"
    },
    {
      "inputs": [
        {
          "internalType": "bytes32",
          "name": "label",
          "type": "bytes32"
        },
        {
          "internalType": "string",
          "name": "subdomain",
          "type": "string"
        },
        {
          "internalType": "address",
          "name": "resolver",
          "type": "address"
        }
      ],
      "name": "encodeHelper",
      "outputs": [
        {
          "internalType": "bytes",
          "name": "data",
          "type": "bytes"
        }
      ],
      "stateMutability": "pure",
      "type": "function",
      "constant": true
    },
    {
      "inputs": [
        {
          "internalType": "bytes32",
          "name": "label",
          "type": "bytes32"
        }
      ],
      "name": "getPrice",
      "outputs": [
        {
          "internalType": "uint256",
          "name": "price",
          "type": "uint256"
        }
      ],
      "stateMutability": "view",
      "type": "function",
      "constant": true
    }
  ],
  "bytecode": "0x6080604052600180546001600160a01b031990811673244aa29426fb6524760bd9acbb66ad53c5eb32ca17909155600280549091166e0c2e074ec69a0dfb2997ba6c7d2e1e17905534801561005357600080fd5b5061005d33610062565b6100b2565b600080546001600160a01b038381166001600160a01b0319831681178455604051919092169283917f8be0079c531659141344cd1fd0a4f28419497f9722a3daafe3b4186f6b6457e09190a35050565b61125a806100c16000396000f3fe608060405234801561001057600080fd5b50600436106100ea5760003560e01c80637e7263d61161008c57806396df35401161006657806396df35401461020e578063c722f17714610235578063d65ac33414610256578063f2fde38b1461026957600080fd5b80637e7263d6146101ca5780638da5cb5b146101ea5780638f4ffcb1146101fb57600080fd5b80634b7d0927116100c85780634b7d092714610187578063503f8fa51461019c578063715018a6146101af578063733ccaba146101b757600080fd5b8063150b7a02146100ef57806331d98b3f1461012b5780633f15457f1461015c575b600080fd5b61010d6100fd366004610ccd565b630a85bd0160e11b949350505050565b6040516001600160e01b031990911681526020015b60405180910390f35b61014e610139366004610d39565b60009081526003602052604090206001015490565b604051908152602001610122565b60025461016f906001600160a01b031681565b6040516001600160a01b039091168152602001610122565b61019a610195366004610d52565b61027c565b005b61019a6101aa366004610dbe565b61054d565b61019a610585565b61019a6101c5366004610e03565b6105bb565b6101dd6101d8366004610e55565b6106a1565b6040516101229190610f35565b6000546001600160a01b031661016f565b61019a610209366004610f4f565b6106d3565b61014e7f93cdeb708b7545dc668eb9280176169d1c33cfd8ed6f04690a0bcc88a93fc4ae81565b610248610243366004610d39565b61075a565b604051610122929190610fa3565b61019a610264366004610dbe565b6107fe565b61019a610277366004610fc5565b610890565b604080517f93cdeb708b7545dc668eb9280176169d1c33cfd8ed6f04690a0bcc88a93fc4ae6020820152908101859052829060009060600160408051808303601f190181528282528051602091820120885189830120600254928501829052928401839052935090916000916001600160a01b0316906302571be390606001604051602081830303815290604052805190602001206040518263ffffffff1660e01b815260040161032f91815260200190565b602060405180830381865afa15801561034c573d6000803e3d6000fd5b505050506040513d601f19601f820116820180604052508101906103709190610fe2565b6001600160a01b0316146103dc5760405162461bcd60e51b815260206004820152602860248201527f537562646f6d61696e206d757374206e6f74206265207265676973746572656460448201526720616c726561647960c01b60648201526084015b60405180910390fd5b600087815260036020908152604091829020915189916103fe91849101611039565b60405160208183030381529060405280519060200120146104735760405162461bcd60e51b815260206004820152602960248201527f446f6d61696e206d75737420626520617661696c61626c6520666f722072656760448201526834b9ba3930ba34b7b760b91b60648201526084016103d3565b60018054908201546040516323b872dd60e01b81526001600160a01b03878116600483015230602483015260448201929092529116906323b872dd906064016020604051808303816000875af11580156104d1573d6000803e3d6000fd5b505050506040513d601f19601f820116820180604052508101906104f591906110d4565b6105375760405162461bcd60e51b8152602060048201526013602482015272155cd95c881b5d5cdd081a185d99481c185a59606a1b60448201526064016103d3565b6105438383868861092b565b5050505050505050565b6000546001600160a01b031633146105775760405162461bcd60e51b81526004016103d3906110f6565b61058182826107fe565b5050565b6000546001600160a01b031633146105af5760405162461bcd60e51b81526004016103d3906110f6565b6105b96000610b0a565b565b6000546001600160a01b031633146105e55760405162461bcd60e51b81526004016103d3906110f6565b8151602080840191909120604080517f93cdeb708b7545dc668eb9280176169d1c33cfd8ed6f04690a0bcc88a93fc4ae9381019390935282018190529060009060600160408051808303601f19018152908290528051602090910120600254630c4b7b8560e11b8352600483018290526001600160a01b0386811660248501529193501690631896f70a90604401600060405180830381600087803b15801561068d57600080fd5b505af1158015610543573d6000803e3d6000fd5b6060848484846040516020016106ba949392919061112b565b6040516020818303038152906040529050949350505050565b6001546001600160a01b038381169116146107245760405162461bcd60e51b81526020600482015260116024820152704d7573742070617920696e20307842544360781b60448201526064016103d3565b6000606060008380602001905181019061073e9190611174565b919450925090506107518383898461027c565b50505050505050565b60036020526000908152604090208054819061077590610fff565b80601f01602080910402602001604051908101604052809291908181526020018280546107a190610fff565b80156107ee5780601f106107c3576101008083540402835291602001916107ee565b820191906000526020600020905b8154815290600101906020018083116107d157829003601f168201915b5050505050908060010154905082565b6000546001600160a01b031633146108285760405162461bcd60e51b81526004016103d3906110f6565b8151602080840191909120600081815260038352604090819020905191929091839161085691849101611039565b60405160208183030381529060405280519060200120146108855783516108839082906020870190610b5a565b505b600101919091555050565b6000546001600160a01b031633146108ba5760405162461bcd60e51b81526004016103d3906110f6565b6001600160a01b03811661091f5760405162461bcd60e51b815260206004820152602660248201527f4f776e61626c653a206e6577206f776e657220697320746865207a65726f206160448201526564647265737360d01b60648201526084016103d3565b61092881610b0a565b50565b6002546040516306ab592360e01b815260048101869052602481018590523060448201526001600160a01b03909116906306ab5923906064016020604051808303816000875af1158015610983573d6000803e3d6000fd5b505050506040513d601f19601f820116820180604052508101906109a7919061120b565b50604080516020810186905290810184905260009060600160408051808303601f19018152908290528051602090910120600254630c4b7b8560e11b8352600483018290526001600160a01b0385811660248501529193501690631896f70a90604401600060405180830381600087803b158015610a2457600080fd5b505af1158015610a38573d6000803e3d6000fd5b505060405162d5fa2b60e81b8152600481018490526001600160a01b0386811660248301528516925063d5fa2b009150604401600060405180830381600087803b158015610a8557600080fd5b505af1158015610a99573d6000803e3d6000fd5b5050600254604051635b0fc9c360e01b8152600481018590526001600160a01b0387811660248301529091169250635b0fc9c39150604401600060405180830381600087803b158015610aeb57600080fd5b505af1158015610aff573d6000803e3d6000fd5b505050505050505050565b600080546001600160a01b038381166001600160a01b0319831681178455604051919092169283917f8be0079c531659141344cd1fd0a4f28419497f9722a3daafe3b4186f6b6457e09190a35050565b828054610b6690610fff565b90600052602060002090601f016020900481019282610b885760008555610bce565b82601f10610ba157805160ff1916838001178555610bce565b82800160010185558215610bce579182015b82811115610bce578251825591602001919060010190610bb3565b50610bda929150610bde565b5090565b5b80821115610bda5760008155600101610bdf565b6001600160a01b038116811461092857600080fd5b634e487b7160e01b600052604160045260246000fd5b604051601f8201601f1916810167ffffffffffffffff81118282101715610c4757610c47610c08565b604052919050565b600067ffffffffffffffff821115610c6957610c69610c08565b50601f01601f191660200190565b600082601f830112610c8857600080fd5b8135610c9b610c9682610c4f565b610c1e565b818152846020838601011115610cb057600080fd5b816020850160208301376000918101602001919091529392505050565b60008060008060808587031215610ce357600080fd5b8435610cee81610bf3565b93506020850135610cfe81610bf3565b925060408501359150606085013567ffffffffffffffff811115610d2157600080fd5b610d2d87828801610c77565b91505092959194509250565b600060208284031215610d4b57600080fd5b5035919050565b60008060008060808587031215610d6857600080fd5b84359350602085013567ffffffffffffffff811115610d8657600080fd5b610d9287828801610c77565b9350506040850135610da381610bf3565b91506060850135610db381610bf3565b939692955090935050565b60008060408385031215610dd157600080fd5b823567ffffffffffffffff811115610de857600080fd5b610df485828601610c77565b95602094909401359450505050565b60008060408385031215610e1657600080fd5b823567ffffffffffffffff811115610e2d57600080fd5b610e3985828601610c77565b9250506020830135610e4a81610bf3565b809150509250929050565b60008060008060608587031215610e6b57600080fd5b84359350602085013567ffffffffffffffff80821115610e8a57600080fd5b818701915087601f830112610e9e57600080fd5b813581811115610ead57600080fd5b886020828501011115610ebf57600080fd5b6020830195508094505050506040850135610db381610bf3565b60005b83811015610ef4578181015183820152602001610edc565b83811115610f03576000848401525b50505050565b60008151808452610f21816020860160208601610ed9565b601f01601f19169290920160200192915050565b602081526000610f486020830184610f09565b9392505050565b60008060008060808587031215610f6557600080fd5b8435610f7081610bf3565b9350602085013592506040850135610f8781610bf3565b9150606085013567ffffffffffffffff811115610d2157600080fd5b604081526000610fb66040830185610f09565b90508260208301529392505050565b600060208284031215610fd757600080fd5b8135610f4881610bf3565b600060208284031215610ff457600080fd5b8151610f4881610bf3565b600181811c9082168061101357607f821691505b60208210810361103357634e487b7160e01b600052602260045260246000fd5b50919050565b600080835481600182811c91508083168061105557607f831692505b6020808410820361107457634e487b7160e01b86526022600452602486fd5b8180156110885760018114611099576110c6565b60ff198616895284890196506110c6565b60008a81526020902060005b868110156110be5781548b8201529085019083016110a5565b505084890196505b509498975050505050505050565b6000602082840312156110e657600080fd5b81518015158114610f4857600080fd5b6020808252818101527f4f776e61626c653a2063616c6c6572206973206e6f7420746865206f776e6572604082015260600190565b848152606060208201528260608201528284608083013760008184016080908101919091526001600160a01b03929092166040820152601f909201601f19169091010192915050565b60008060006060848603121561118957600080fd5b83519250602084015167ffffffffffffffff8111156111a757600080fd5b8401601f810186136111b857600080fd5b80516111c6610c9682610c4f565b8181528760208385010111156111db57600080fd5b6111ec826020830160208601610ed9565b809450505050604084015161120081610bf3565b809150509250925092565b60006020828403121561121d57600080fd5b505191905056fea264697066735822122046d5bdcb83511364c5c645163c689a0cafcf169164bf29ed341c4520928ed42164736f6c634300080d0033",
  "immutableReferences": {},
  "source": "// SPDX-License-Identifier: MIT\npragma solidity >=0.4.22 <0.9.0;\nimport \"./ENS.sol\";\nimport \"@openzeppelin/contracts/access/Ownable.sol\";\nimport \"@openzeppelin/contracts/token/ERC721/IERC721Receiver.sol\";\nimport \"@openzeppelin/contracts/token/ERC20/IERC20.sol\";\n\n/**\n * @dev A basic interface for ENS resolvers.\n */\ninterface Resolver {\n  function supportsInterface(bytes4 interfaceID) external pure returns (bool);\n  function addr(bytes32 node) external view returns (address);\n  function setAddr(bytes32 node, address addr) external;\n}\n\nabstract contract ApproveAndCallFallBack {\n  function receiveApproval(address from, uint256 tokens, address token, bytes memory data) virtual public;\n}\n\ncontract SubdomainStore is IERC721Receiver, Ownable, ApproveAndCallFallBack {\n\n  struct Domain {\n    string name;\n    uint price;\n  }\n\n  bytes32 constant public TLD_NODE = 0x93cdeb708b7545dc668eb9280176169d1c33cfd8ed6f04690a0bcc88a93fc4ae;\n  address internal xbtc = 0x244aA29426fb6524760bD9AcbB66ad53C5EB32CA;\n\n  ENS public ens = ENS(0x00000000000C2E074eC69A0dFb2997BA6C7d2e1e);\n  mapping (bytes32 => Domain) public domains;\n  \n  constructor() {\n    \n  }\n  \n  function configureDomainFor(string memory name, uint price) public onlyOwner {\n    bytes32 label = keccak256(bytes(name));\n    Domain storage domain = domains[label];\n\n    if (keccak256(abi.encodePacked(domain.name)) != label) {\n      // New listing\n      domain.name = name;\n    }\n\n    domain.price = price;\n  }\n\n  /**\n   * @dev Configures a domain for sale.\n   * @param name The name to configure.\n   * @param price The price in wei to charge for subdomain registrations\n   */\n  function configureDomain(string memory name, uint price) public onlyOwner {\n    configureDomainFor(name, price);\n  }\n\n  function setResolver(string memory name, address resolver) public onlyOwner {\n    bytes32 label = keccak256(bytes(name));\n    bytes32 node = keccak256(abi.encodePacked(TLD_NODE, label));\n    ens.setResolver(node, resolver);\n  }\n  \n  function doRegistration(bytes32 node, bytes32 label, address subdomainOwner, Resolver resolver) internal {\n    // Get the subdomain so we can configure it\n    ens.setSubnodeOwner(node, label, address(this));\n    bytes32 subnode = keccak256(abi.encodePacked(node, label));\n    // Set the subdomain's resolver\n    ens.setResolver(subnode, address(resolver));\n    // Set the address record on the resolver\n    resolver.setAddr(subnode, subdomainOwner);\n    // Pass ownership of the new subdomain to the registrant\n    ens.setOwner(subnode, subdomainOwner);\n  } \n\n  /**\n   * @dev Registers a subdomain.\n   * @param label The label hash of the domain to register a subdomain of.\n   * @param subdomain The desired subdomain label.\n   * @param _subdomainOwner The account that should own the newly configured subdomain.\n   */\n  function register(bytes32 label, string memory subdomain, address _subdomainOwner, address resolver) public {\n    address subdomainOwner = _subdomainOwner;\n\n    bytes32 domainNode = keccak256(abi.encodePacked(TLD_NODE, label));\n\n    bytes32 subdomainLabel = keccak256(bytes(subdomain));\n\n    // Subdomain must not be registered already.\n    require(ens.owner(keccak256(abi.encodePacked(domainNode, subdomainLabel))) == address(0),\"Subdomain must not be registered already\");\n    Domain storage domain = domains[label];\n\n    // Domain must be available for registration\n    require(keccak256(abi.encodePacked(domain.name)) == label,\"Domain must be available for registration\");\n\n    // User must have paid\n    require(IERC20(xbtc).transferFrom(subdomainOwner, address(this), domain.price),\"User must have paid\");\n\n    doRegistration(domainNode, subdomainLabel, subdomainOwner, Resolver(resolver));\n  }\n\n  function onERC721Received(address, address, uint256, bytes memory) public virtual override returns (bytes4) {\n    return this.onERC721Received.selector;\n  }\n\n  function receiveApproval(address from, uint256, address token, bytes memory data) public override {\n    require(token == xbtc, \"Must pay in 0xBTC\");\n\n    bytes32 label; \n    string memory subdomain;\n    address resolver;\n\n    (label, subdomain, resolver) = abi.decode(data, (bytes32, string, address));\n\n    register(label, subdomain, from, resolver);\n  }\n\n  function encodeHelper(bytes32 label, string calldata subdomain, address resolver) external pure returns (bytes memory data) {\n    return abi.encode(label, subdomain, resolver);\n  }\n\n  function getPrice (bytes32 label) external view returns (uint256 price){\n    Domain storage data = domains[label];\n    return data.price;\n  }\n\n}\n",
  "sourcePath": "C:\\Users\\Pablo\\Documents\\GitHub\\0xbitcoin-subdomain-store\\contracts\\SubdomainStore.sol",
  "compiler": {
    "name": "solc",
    "version": "0.8.13+commit.abaa5c0e.Emscripten.clang"
  },
  "schemaVersion": "3.4.6",
  "updatedAt": "2022-03-30T22:16:45.819Z",
  "networkType": "ethereum",
  "devdoc": {
    "kind": "dev",
    "methods": {
      "configureDomain(string,uint256)": {
        "details": "Configures a domain for sale.",
        "params": {
          "name": "The name to configure.",
          "price": "The price in wei to charge for subdomain registrations"
        }
      },
      "owner()": {
        "details": "Returns the address of the current owner."
      },
      "register(bytes32,string,address,address)": {
        "details": "Registers a subdomain.",
        "params": {
          "_subdomainOwner": "The account that should own the newly configured subdomain.",
          "label": "The label hash of the domain to register a subdomain of.",
          "subdomain": "The desired subdomain label."
        }
      },
      "renounceOwnership()": {
        "details": "Leaves the contract without owner. It will not be possible to call `onlyOwner` functions anymore. Can only be called by the current owner. NOTE: Renouncing ownership will leave the contract without an owner, thereby removing any functionality that is only available to the owner."
      },
      "transferOwnership(address)": {
        "details": "Transfers ownership of the contract to a new account (`newOwner`). Can only be called by the current owner."
      }
    },
    "version": 1
  },
  "userdoc": {
    "kind": "user",
    "methods": {},
    "version": 1
  }
}