{
  "contractName": "SubdomainStore",
  "abi": [
    {
      "inputs": [],
      "stateMutability": "nonpayable",
      "type": "constructor"
    },
    {
      "anonymous": false,
      "inputs": [
        {
          "indexed": true,
          "internalType": "address",
          "name": "previousOwner",
          "type": "address"
        },
        {
          "indexed": true,
          "internalType": "address",
          "name": "newOwner",
          "type": "address"
        }
      ],
      "name": "OwnershipTransferred",
      "type": "event"
    },
    {
      "inputs": [],
      "name": "owner",
      "outputs": [
        {
          "internalType": "address",
          "name": "",
          "type": "address"
        }
      ],
      "stateMutability": "view",
      "type": "function",
      "constant": true
    },
    {
      "inputs": [],
      "name": "renounceOwnership",
      "outputs": [],
      "stateMutability": "nonpayable",
      "type": "function"
    },
    {
      "inputs": [
        {
          "internalType": "address",
          "name": "newOwner",
          "type": "address"
        }
      ],
      "name": "transferOwnership",
      "outputs": [],
      "stateMutability": "nonpayable",
      "type": "function"
    },
    {
      "inputs": [
        {
          "internalType": "string",
          "name": "name",
          "type": "string"
        },
        {
          "internalType": "uint256",
          "name": "price",
          "type": "uint256"
        }
      ],
      "name": "configureDomain",
      "outputs": [],
      "stateMutability": "nonpayable",
      "type": "function"
    },
    {
      "inputs": [
        {
          "internalType": "uint256",
          "name": "_devShare",
          "type": "uint256"
        },
        {
          "internalType": "uint256",
          "name": "_guildShare",
          "type": "uint256"
        }
      ],
      "name": "setShares",
      "outputs": [],
      "stateMutability": "nonpayable",
      "type": "function"
    },
    {
      "inputs": [
        {
          "internalType": "string",
          "name": "name",
          "type": "string"
        },
        {
          "internalType": "address",
          "name": "resolver",
          "type": "address"
        }
      ],
      "name": "setResolver",
      "outputs": [],
      "stateMutability": "nonpayable",
      "type": "function"
    },
    {
      "inputs": [
        {
          "internalType": "bytes32",
          "name": "label",
          "type": "bytes32"
        },
        {
          "internalType": "string",
          "name": "subdomain",
          "type": "string"
        },
        {
          "internalType": "address",
          "name": "subdomainOwner",
          "type": "address"
        },
        {
          "internalType": "address",
          "name": "resolver",
          "type": "address"
        }
      ],
      "name": "register",
      "outputs": [],
      "stateMutability": "nonpayable",
      "type": "function"
    },
    {
      "inputs": [
        {
          "internalType": "address",
          "name": "",
          "type": "address"
        },
        {
          "internalType": "address",
          "name": "",
          "type": "address"
        },
        {
          "internalType": "uint256",
          "name": "",
          "type": "uint256"
        },
        {
          "internalType": "bytes",
          "name": "",
          "type": "bytes"
        }
      ],
      "name": "onERC721Received",
      "outputs": [
        {
          "internalType": "bytes4",
          "name": "",
          "type": "bytes4"
        }
      ],
      "stateMutability": "nonpayable",
      "type": "function"
    },
    {
      "inputs": [
        {
          "internalType": "address",
          "name": "from",
          "type": "address"
        },
        {
          "internalType": "uint256",
          "name": "",
          "type": "uint256"
        },
        {
          "internalType": "address",
          "name": "token",
          "type": "address"
        },
        {
          "internalType": "bytes",
          "name": "data",
          "type": "bytes"
        }
      ],
      "name": "receiveApproval",
      "outputs": [],
      "stateMutability": "nonpayable",
      "type": "function"
    },
    {
      "inputs": [],
      "name": "withdrawAndShare",
      "outputs": [],
      "stateMutability": "nonpayable",
      "type": "function"
    },
    {
      "inputs": [
        {
          "internalType": "bytes32",
          "name": "label",
          "type": "bytes32"
        },
        {
          "internalType": "string",
          "name": "subdomain",
          "type": "string"
        },
        {
          "internalType": "address",
          "name": "resolver",
          "type": "address"
        }
      ],
      "name": "encodeData",
      "outputs": [
        {
          "internalType": "bytes",
          "name": "data",
          "type": "bytes"
        }
      ],
      "stateMutability": "pure",
      "type": "function",
      "constant": true
    },
    {
      "inputs": [
        {
          "internalType": "string",
          "name": "label",
          "type": "string"
        }
      ],
      "name": "encodeLabel",
      "outputs": [
        {
          "internalType": "bytes32",
          "name": "encodedLabel",
          "type": "bytes32"
        }
      ],
      "stateMutability": "pure",
      "type": "function",
      "constant": true
    },
    {
      "inputs": [
        {
          "internalType": "bytes32",
          "name": "label",
          "type": "bytes32"
        }
      ],
      "name": "getPrice",
      "outputs": [
        {
          "internalType": "uint256",
          "name": "price",
          "type": "uint256"
        }
      ],
      "stateMutability": "view",
      "type": "function",
      "constant": true
    }
  ],
  "bytecode": "0x6080604052600180546001600160a01b031990811673244aa29426fb6524760bd9acbb66ad53c5eb32ca1790915560028054821673d915246ce4430cb893757bc5908990921344f02d17905560038054821673543c3f3ee66cf54746d4c4011d5cacf544a427f517905560048054821673167152a46e8616d4a6892a6afd8e52f060151c70179055600580549091166e0c2e074ec69a0dfb2997ba6c7d2e1e17905560006006819055600755605060085560146009553480156100c157600080fd5b506100cb336100d0565b610120565b600080546001600160a01b038381166001600160a01b0319831681178455604051919092169283917f8be0079c531659141344cd1fd0a4f28419497f9722a3daafe3b4186f6b6457e09190a35050565b6113e38061012f6000396000f3fe608060405234801561001057600080fd5b50600436106100cf5760003560e01c8063715018a61161008c5780638f0ba422116100665780638f0ba422146101d25780638f4ffcb1146101e5578063e94a8386146101f8578063f2fde38b1461020057600080fd5b8063715018a61461019c578063733ccaba146101a45780638da5cb5b146101b757600080fd5b8063150b7a02146100d45780632aca3e7d1461011057806331d98b3f146101255780634b7d092714610156578063503f8fa5146101695780635e2e047b1461017c575b600080fd5b6100f26100e2366004610d78565b630a85bd0160e11b949350505050565b6040516001600160e01b031990911681526020015b60405180910390f35b61012361011e366004610de4565b610213565b005b610148610133366004610e06565b6000908152600a602052604090206001015490565b604051908152602001610107565b610123610164366004610e1f565b6102b5565b610123610177366004610e8b565b6105da565b61018f61018a366004610f19565b61066c565b6040516101079190610f9d565b61012361069e565b6101236101b2366004610fd0565b6106d4565b6000546040516001600160a01b039091168152602001610107565b6101486101e0366004611022565b6107c5565b6101236101f3366004611064565b6107e7565b610123610865565b61012361020e3660046110b8565b610acb565b6000546001600160a01b031633146102465760405162461bcd60e51b815260040161023d906110dc565b60405180910390fd5b6102508183611127565b606414801561025d575060015b8015610267575060015b6102aa5760405162461bcd60e51b8152602060048201526014602482015273496e76616c69642073686172652076616c75657360601b604482015260640161023d565b600891909155600955565b604080517f93cdeb708b7545dc668eb9280176169d1c33cfd8ed6f04690a0bcc88a93fc4ae602082015290810185905260009060600160408051808303601f190181528282528051602091820120875188830120600554928501829052928401839052935090916000916001600160a01b0316906302571be390606001604051602081830303815290604052805190602001206040518263ffffffff1660e01b815260040161036691815260200190565b602060405180830381865afa158015610383573d6000803e3d6000fd5b505050506040513d601f19601f820116820180604052508101906103a7919061113f565b6001600160a01b03161461040e5760405162461bcd60e51b815260206004820152602860248201527f537562646f6d61696e206d757374206e6f74206265207265676973746572656460448201526720616c726561647960c01b606482015260840161023d565b6000868152600a60209081526040918290209151889161043091849101611196565b60405160208183030381529060405280519060200120146104a55760405162461bcd60e51b815260206004820152602960248201527f446f6d61696e206d75737420626520617661696c61626c6520666f722072656760448201526834b9ba3930ba34b7b760b91b606482015260840161023d565b60018054908201546040516323b872dd60e01b81526001600160a01b03888116600483015230602483015260448201929092529116906323b872dd906064016020604051808303816000875af1158015610503573d6000803e3d6000fd5b505050506040513d601f19601f820116820180604052508101906105279190611231565b6105695760405162461bcd60e51b8152602060048201526013602482015272155cd95c881b5d5cdd081a185d99481c185a59606a1b604482015260640161023d565b6064600854826001015461057d9190611253565b6105879190611272565b6006546105949190611127565b60065560095460018201546064916105ab91611253565b6105b59190611272565b6007546105c29190611127565b6007556105d183838787610b66565b50505050505050565b6000546001600160a01b031633146106045760405162461bcd60e51b815260040161023d906110dc565b81516020808401919091206000818152600a8352604090819020905191929091839161063291849101611196565b604051602081830303815290604052805190602001201461066157835161065f9082906020870190610c05565b505b600101919091555050565b6060848484846040516020016106859493929190611294565b6040516020818303038152906040529050949350505050565b6000546001600160a01b031633146106c85760405162461bcd60e51b815260040161023d906110dc565b6106d26000610bb5565b565b6000546001600160a01b031633146106fe5760405162461bcd60e51b815260040161023d906110dc565b8151602080840191909120604080517f93cdeb708b7545dc668eb9280176169d1c33cfd8ed6f04690a0bcc88a93fc4ae9381019390935282018190529060009060600160408051808303601f19018152908290528051602090910120600554630c4b7b8560e11b8352600483018290526001600160a01b0386811660248501529193501690631896f70a906044015b600060405180830381600087803b1580156107a757600080fd5b505af11580156107bb573d6000803e3d6000fd5b5050505050505050565b600082826040516107d79291906112dd565b6040518091039020905092915050565b6001546001600160a01b038381169116146108385760405162461bcd60e51b81526020600482015260116024820152704d7573742070617920696e20307842544360781b604482015260640161023d565b6000606060008380602001905181019061085291906112ed565b919450925090506105d1838389846102b5565b6000600654118061087857506000600754115b6108ba5760405162461bcd60e51b81526020600482015260136024820152726e6f7468696e6720746f20776974686472617760681b604482015260640161023d565b6006805460009182905560078054929055600154600280549293926001600160a01b039283169263a9059cbb929116906108f49086611272565b6040516001600160e01b031960e085901b1681526001600160a01b03909216600483015260248201526044016020604051808303816000875af115801561093f573d6000803e3d6000fd5b505050506040513d601f19601f820116820180604052508101906109639190611231565b61097f5760405162461bcd60e51b815260040161023d90611384565b6001546003546001600160a01b039182169163a9059cbb91166109a3600286611272565b6040516001600160e01b031960e085901b1681526001600160a01b03909216600483015260248201526044016020604051808303816000875af11580156109ee573d6000803e3d6000fd5b505050506040513d601f19601f82011682018060405250810190610a129190611231565b610a2e5760405162461bcd60e51b815260040161023d90611384565b6001546004805460405163a9059cbb60e01b81526001600160a01b0391821692810192909252602482018490529091169063a9059cbb906044016020604051808303816000875af1158015610a87573d6000803e3d6000fd5b505050506040513d601f19601f82011682018060405250810190610aab9190611231565b610ac75760405162461bcd60e51b815260040161023d90611384565b5050565b6000546001600160a01b03163314610af55760405162461bcd60e51b815260040161023d906110dc565b6001600160a01b038116610b5a5760405162461bcd60e51b815260206004820152602660248201527f4f776e61626c653a206e6577206f776e657220697320746865207a65726f206160448201526564647265737360d01b606482015260840161023d565b610b6381610bb5565b50565b6005546040516305ef2c7f60e41b815260048101869052602481018590526001600160a01b03848116604483015283811660648301526000608483015290911690635ef2c7f09060a40161078d565b600080546001600160a01b038381166001600160a01b0319831681178455604051919092169283917f8be0079c531659141344cd1fd0a4f28419497f9722a3daafe3b4186f6b6457e09190a35050565b828054610c119061115c565b90600052602060002090601f016020900481019282610c335760008555610c79565b82601f10610c4c57805160ff1916838001178555610c79565b82800160010185558215610c79579182015b82811115610c79578251825591602001919060010190610c5e565b50610c85929150610c89565b5090565b5b80821115610c855760008155600101610c8a565b6001600160a01b0381168114610b6357600080fd5b634e487b7160e01b600052604160045260246000fd5b604051601f8201601f1916810167ffffffffffffffff81118282101715610cf257610cf2610cb3565b604052919050565b600067ffffffffffffffff821115610d1457610d14610cb3565b50601f01601f191660200190565b600082601f830112610d3357600080fd5b8135610d46610d4182610cfa565b610cc9565b818152846020838601011115610d5b57600080fd5b816020850160208301376000918101602001919091529392505050565b60008060008060808587031215610d8e57600080fd5b8435610d9981610c9e565b93506020850135610da981610c9e565b925060408501359150606085013567ffffffffffffffff811115610dcc57600080fd5b610dd887828801610d22565b91505092959194509250565b60008060408385031215610df757600080fd5b50508035926020909101359150565b600060208284031215610e1857600080fd5b5035919050565b60008060008060808587031215610e3557600080fd5b84359350602085013567ffffffffffffffff811115610e5357600080fd5b610e5f87828801610d22565b9350506040850135610e7081610c9e565b91506060850135610e8081610c9e565b939692955090935050565b60008060408385031215610e9e57600080fd5b823567ffffffffffffffff811115610eb557600080fd5b610ec185828601610d22565b95602094909401359450505050565b60008083601f840112610ee257600080fd5b50813567ffffffffffffffff811115610efa57600080fd5b602083019150836020828501011115610f1257600080fd5b9250929050565b60008060008060608587031215610f2f57600080fd5b84359350602085013567ffffffffffffffff811115610f4d57600080fd5b610f5987828801610ed0565b9094509250506040850135610e8081610c9e565b60005b83811015610f88578181015183820152602001610f70565b83811115610f97576000848401525b50505050565b6020815260008251806020840152610fbc816040850160208701610f6d565b601f01601f19169190910160400192915050565b60008060408385031215610fe357600080fd5b823567ffffffffffffffff811115610ffa57600080fd5b61100685828601610d22565b925050602083013561101781610c9e565b809150509250929050565b6000806020838503121561103557600080fd5b823567ffffffffffffffff81111561104c57600080fd5b61105885828601610ed0565b90969095509350505050565b6000806000806080858703121561107a57600080fd5b843561108581610c9e565b935060208501359250604085013561109c81610c9e565b9150606085013567ffffffffffffffff811115610dcc57600080fd5b6000602082840312156110ca57600080fd5b81356110d581610c9e565b9392505050565b6020808252818101527f4f776e61626c653a2063616c6c6572206973206e6f7420746865206f776e6572604082015260600190565b634e487b7160e01b600052601160045260246000fd5b6000821982111561113a5761113a611111565b500190565b60006020828403121561115157600080fd5b81516110d581610c9e565b600181811c9082168061117057607f821691505b60208210810361119057634e487b7160e01b600052602260045260246000fd5b50919050565b600080835481600182811c9150808316806111b257607f831692505b602080841082036111d157634e487b7160e01b86526022600452602486fd5b8180156111e557600181146111f657611223565b60ff19861689528489019650611223565b60008a81526020902060005b8681101561121b5781548b820152908501908301611202565b505084890196505b509498975050505050505050565b60006020828403121561124357600080fd5b815180151581146110d557600080fd5b600081600019048311821515161561126d5761126d611111565b500290565b60008261128f57634e487b7160e01b600052601260045260246000fd5b500490565b848152606060208201528260608201528284608083013760008184016080908101919091526001600160a01b03929092166040820152601f909201601f19169091010192915050565b8183823760009101908152919050565b60008060006060848603121561130257600080fd5b83519250602084015167ffffffffffffffff81111561132057600080fd5b8401601f8101861361133157600080fd5b805161133f610d4182610cfa565b81815287602083850101111561135457600080fd5b611365826020830160208601610f6d565b809450505050604084015161137981610c9e565b809150509250925092565b6020808252600f908201526e1d1c985b9cd9995c8819985a5b1959608a1b60408201526060019056fea264697066735822122099ce882ea4e83236856488a0575c22335f602586eac59d578a2bd8920718360264736f6c634300080d0033",
  "immutableReferences": {},
  "source": "// SPDX-License-Identifier: MIT\npragma solidity >=0.4.22 <0.9.0;\nimport \"./ENS.sol\";\nimport \"@openzeppelin/contracts/access/Ownable.sol\";\nimport \"@openzeppelin/contracts/token/ERC721/IERC721Receiver.sol\";\nimport \"@openzeppelin/contracts/token/ERC20/IERC20.sol\";\n\n/**\n * @dev A basic interface for ENS resolvers.\n */\ninterface Resolver {\n  function supportsInterface(bytes4 interfaceID) external pure returns (bool);\n  function addr(bytes32 node) external view returns (address);\n  function setAddr(bytes32 node, address addr) external;\n}\n\nabstract contract ApproveAndCallFallBack {\n  function receiveApproval(address from, uint256 tokens, address token, bytes memory data) virtual public;\n}\n\ncontract SubdomainStore is IERC721Receiver, Ownable, ApproveAndCallFallBack {\n\n  struct Domain {\n    string name;\n    uint price;\n  }\n\n  //.eth\n  bytes32 constant internal TLD_NODE = 0x93cdeb708b7545dc668eb9280176169d1c33cfd8ed6f04690a0bcc88a93fc4ae;\n\n  //0xbitcoin erc20 contract\n  address internal xbtc = 0x244aA29426fb6524760bD9AcbB66ad53C5EB32CA;\n\n  //dev accounts\n  address internal fappablo = 0xD915246cE4430cb893757bC5908990921344F02d; \n  address internal rms = 0x543c3F3Ee66Cf54746d4c4011d5cACf544a427f5;\n\n  //0xbitcoin miners guild contract\n  address internal guild = 0x167152A46E8616D4a6892A6AfD8E52F060151C70;\n\n  //ens contract\n  ENS internal ens = ENS(0x00000000000C2E074eC69A0dFb2997BA6C7d2e1e);\n\n  //funds trackers\n  uint256 internal devFunds = 0;\n  uint256 internal guildFunds = 0;\n\n  //share %\n  uint256 internal devShare = 80;\n  uint256 internal guildShare = 20;\n  \n  mapping (bytes32 => Domain) internal domains;\n  \n  constructor() {\n    \n  }\n  \n  /**\n   * @dev Configures a domain for sale.\n   * @param name The name to configure.\n   * @param price The price in wei to charge for subdomain registrations\n   */\n  function configureDomain(string memory name, uint price) public onlyOwner {\n    bytes32 label = keccak256(bytes(name));\n    Domain storage domain = domains[label];\n\n    if (keccak256(abi.encodePacked(domain.name)) != label) {\n      // New listing\n      domain.name = name;\n    }\n\n    domain.price = price;\n  }\n\n  function setShares(uint256 _devShare, uint256 _guildShare) external onlyOwner {\n    require(_devShare+_guildShare==100 && _devShare >= 0 && _guildShare >= 0, \"Invalid share values\");\n    devShare = _devShare;\n    guildShare = _guildShare;\n  }\n\n  function setResolver(string memory name, address resolver) public onlyOwner {\n    bytes32 label = keccak256(bytes(name));\n    bytes32 node = keccak256(abi.encodePacked(TLD_NODE, label));\n    ens.setResolver(node, resolver);\n  }\n  \n  function doRegistration(bytes32 node, bytes32 label, address subdomainOwner, Resolver resolver) internal {\n    ens.setSubnodeRecord(node, label, subdomainOwner, address(resolver), 0);\n  }\n\n  /**\n   * @dev Registers a subdomain.\n   * @param label The label hash of the domain to register a subdomain of.\n   * @param subdomain The desired subdomain label.\n   * @param subdomainOwner The account that should own the newly configured subdomain.\n   */\n  function register(bytes32 label, string memory subdomain, address subdomainOwner, address resolver) public {\n    bytes32 domainNode = keccak256(abi.encodePacked(TLD_NODE, label));\n\n    bytes32 subdomainLabel = keccak256(bytes(subdomain));\n\n    // Subdomain must not be registered already.\n    require(ens.owner(keccak256(abi.encodePacked(domainNode, subdomainLabel))) == address(0), \"Subdomain must not be registered already\");\n    Domain storage domain = domains[label];\n\n    // Domain must be available for registration\n    require(keccak256(abi.encodePacked(domain.name)) == label, \"Domain must be available for registration\");\n\n    // The account that gets the subdomain also needs to pay\n    require(IERC20(xbtc).transferFrom(subdomainOwner, address(this), domain.price), \"User must have paid\");\n\n    devFunds = devFunds + (domain.price * devShare / 100);\n    guildFunds = guildFunds + (domain.price * guildShare / 100);\n\n    doRegistration(domainNode, subdomainLabel, subdomainOwner, Resolver(resolver));\n  }\n\n  function onERC721Received(address, address, uint256, bytes memory) public virtual override returns (bytes4) {\n    return this.onERC721Received.selector;\n  }\n\n  function receiveApproval(address from, uint256, address token, bytes memory data) public override {\n    require(token == xbtc, \"Must pay in 0xBTC\");\n\n    bytes32 label; \n    string memory subdomain;\n    address resolver;\n\n    (label, subdomain, resolver) = abi.decode(data, (bytes32, string, address));\n\n    register(label, subdomain, from, resolver);\n  }\n\n  function withdrawAndShare() public virtual {\n    require(devFunds > 0 || guildFunds > 0 ,'nothing to withdraw');\n\n    //prevent reentrancy\n    uint256 devFee = devFunds;\n    devFunds = 0;\n\n    uint256 guildFee = guildFunds;\n    guildFunds = 0;\n\n    require(IERC20(xbtc).transfer(fappablo, devFee/2),'transfer failed');\n    require(IERC20(xbtc).transfer(rms, devFee/2),'transfer failed');\n    require(IERC20(xbtc).transfer(guild, guildFee),'transfer failed');\n  }\n\n  //Helper function to encode the data needed for ApproveAndCall\n  function encodeData(bytes32 label, string calldata subdomain, address resolver) external pure returns (bytes memory data) {\n    return abi.encode(label, subdomain, resolver);\n  }\n\n  //Helper function to get the label hash\n  function encodeLabel(string calldata label) external pure returns (bytes32 encodedLabel) {\n    return keccak256(bytes(label));\n  }\n\n  function getPrice (bytes32 label) external view returns (uint256 price){\n    Domain storage data = domains[label];\n    return data.price;\n  }\n\n}\n",
  "sourcePath": "C:\\Users\\Pablo\\Documents\\GitHub\\0xbitcoin-subdomain-store\\contracts\\SubdomainStore.sol",
  "compiler": {
    "name": "solc",
    "version": "0.8.13+commit.abaa5c0e.Emscripten.clang"
  },
  "schemaVersion": "3.4.6",
  "updatedAt": "2022-04-01T15:06:40.684Z",
  "networkType": "ethereum",
  "devdoc": {
    "kind": "dev",
    "methods": {
      "configureDomain(string,uint256)": {
        "details": "Configures a domain for sale.",
        "params": {
          "name": "The name to configure.",
          "price": "The price in wei to charge for subdomain registrations"
        }
      },
      "owner()": {
        "details": "Returns the address of the current owner."
      },
      "register(bytes32,string,address,address)": {
        "details": "Registers a subdomain.",
        "params": {
          "label": "The label hash of the domain to register a subdomain of.",
          "subdomain": "The desired subdomain label.",
          "subdomainOwner": "The account that should own the newly configured subdomain."
        }
      },
      "renounceOwnership()": {
        "details": "Leaves the contract without owner. It will not be possible to call `onlyOwner` functions anymore. Can only be called by the current owner. NOTE: Renouncing ownership will leave the contract without an owner, thereby removing any functionality that is only available to the owner."
      },
      "transferOwnership(address)": {
        "details": "Transfers ownership of the contract to a new account (`newOwner`). Can only be called by the current owner."
      }
    },
    "version": 1
  },
  "userdoc": {
    "kind": "user",
    "methods": {},
    "version": 1
  }
}