{
  "contractName": "SubdomainStore",
  "abi": [
    {
      "inputs": [],
      "stateMutability": "nonpayable",
      "type": "constructor"
    },
    {
      "anonymous": false,
      "inputs": [
        {
          "indexed": true,
          "internalType": "address",
          "name": "previousOwner",
          "type": "address"
        },
        {
          "indexed": true,
          "internalType": "address",
          "name": "newOwner",
          "type": "address"
        }
      ],
      "name": "OwnershipTransferred",
      "type": "event"
    },
    {
      "inputs": [],
      "name": "owners",
      "outputs": [
        {
          "internalType": "address[2]",
          "name": "",
          "type": "address[2]"
        }
      ],
      "stateMutability": "view",
      "type": "function",
      "constant": true
    },
    {
      "inputs": [],
      "name": "renounceOwnership",
      "outputs": [],
      "stateMutability": "nonpayable",
      "type": "function"
    },
    {
      "inputs": [
        {
          "internalType": "address",
          "name": "newOwner",
          "type": "address"
        }
      ],
      "name": "transferOwnership",
      "outputs": [],
      "stateMutability": "nonpayable",
      "type": "function"
    },
    {
      "inputs": [
        {
          "internalType": "string",
          "name": "name",
          "type": "string"
        },
        {
          "internalType": "uint256",
          "name": "price",
          "type": "uint256"
        }
      ],
      "name": "configureDomain",
      "outputs": [],
      "stateMutability": "nonpayable",
      "type": "function"
    },
    {
      "inputs": [
        {
          "internalType": "uint256",
          "name": "_devShare",
          "type": "uint256"
        },
        {
          "internalType": "uint256",
          "name": "_guildShare",
          "type": "uint256"
        }
      ],
      "name": "setShares",
      "outputs": [],
      "stateMutability": "nonpayable",
      "type": "function"
    },
    {
      "inputs": [
        {
          "internalType": "string",
          "name": "name",
          "type": "string"
        },
        {
          "internalType": "uint256",
          "name": "coinType",
          "type": "uint256"
        },
        {
          "internalType": "bytes",
          "name": "a",
          "type": "bytes"
        },
        {
          "internalType": "contract Resolver",
          "name": "resolver",
          "type": "address"
        }
      ],
      "name": "setResidentAddress",
      "outputs": [],
      "stateMutability": "nonpayable",
      "type": "function"
    },
    {
      "inputs": [
        {
          "internalType": "string",
          "name": "name",
          "type": "string"
        },
        {
          "internalType": "address",
          "name": "addr",
          "type": "address"
        },
        {
          "internalType": "contract Resolver",
          "name": "resolver",
          "type": "address"
        }
      ],
      "name": "setResidentAddress",
      "outputs": [],
      "stateMutability": "nonpayable",
      "type": "function"
    },
    {
      "inputs": [
        {
          "internalType": "string",
          "name": "name",
          "type": "string"
        },
        {
          "internalType": "string",
          "name": "key",
          "type": "string"
        },
        {
          "internalType": "string",
          "name": "value",
          "type": "string"
        },
        {
          "internalType": "contract Resolver",
          "name": "resolver",
          "type": "address"
        }
      ],
      "name": "setResidentText",
      "outputs": [],
      "stateMutability": "nonpayable",
      "type": "function"
    },
    {
      "inputs": [
        {
          "internalType": "string",
          "name": "name",
          "type": "string"
        },
        {
          "internalType": "bytes",
          "name": "hash",
          "type": "bytes"
        },
        {
          "internalType": "contract Resolver",
          "name": "resolver",
          "type": "address"
        }
      ],
      "name": "setResidentContenthash",
      "outputs": [],
      "stateMutability": "nonpayable",
      "type": "function"
    },
    {
      "inputs": [
        {
          "internalType": "string",
          "name": "name",
          "type": "string"
        },
        {
          "internalType": "address",
          "name": "resolver",
          "type": "address"
        }
      ],
      "name": "setResidentResolver",
      "outputs": [],
      "stateMutability": "nonpayable",
      "type": "function"
    },
    {
      "inputs": [
        {
          "internalType": "bytes32",
          "name": "label",
          "type": "bytes32"
        },
        {
          "internalType": "string",
          "name": "subdomain",
          "type": "string"
        },
        {
          "internalType": "address",
          "name": "subdomainOwner",
          "type": "address"
        },
        {
          "internalType": "address",
          "name": "resolver",
          "type": "address"
        }
      ],
      "name": "register",
      "outputs": [],
      "stateMutability": "nonpayable",
      "type": "function"
    },
    {
      "inputs": [
        {
          "internalType": "address",
          "name": "",
          "type": "address"
        },
        {
          "internalType": "address",
          "name": "",
          "type": "address"
        },
        {
          "internalType": "uint256",
          "name": "",
          "type": "uint256"
        },
        {
          "internalType": "bytes",
          "name": "",
          "type": "bytes"
        }
      ],
      "name": "onERC721Received",
      "outputs": [
        {
          "internalType": "bytes4",
          "name": "",
          "type": "bytes4"
        }
      ],
      "stateMutability": "nonpayable",
      "type": "function"
    },
    {
      "inputs": [
        {
          "internalType": "address",
          "name": "from",
          "type": "address"
        },
        {
          "internalType": "uint256",
          "name": "",
          "type": "uint256"
        },
        {
          "internalType": "address",
          "name": "token",
          "type": "address"
        },
        {
          "internalType": "bytes",
          "name": "data",
          "type": "bytes"
        }
      ],
      "name": "receiveApproval",
      "outputs": [],
      "stateMutability": "nonpayable",
      "type": "function"
    },
    {
      "inputs": [],
      "name": "withdrawAndShare",
      "outputs": [],
      "stateMutability": "nonpayable",
      "type": "function"
    },
    {
      "inputs": [
        {
          "internalType": "bytes32",
          "name": "label",
          "type": "bytes32"
        },
        {
          "internalType": "string",
          "name": "subdomain",
          "type": "string"
        },
        {
          "internalType": "address",
          "name": "resolver",
          "type": "address"
        }
      ],
      "name": "encodeData",
      "outputs": [
        {
          "internalType": "bytes",
          "name": "data",
          "type": "bytes"
        }
      ],
      "stateMutability": "pure",
      "type": "function",
      "constant": true
    },
    {
      "inputs": [
        {
          "internalType": "string",
          "name": "label",
          "type": "string"
        }
      ],
      "name": "encodeLabel",
      "outputs": [
        {
          "internalType": "bytes32",
          "name": "encodedLabel",
          "type": "bytes32"
        }
      ],
      "stateMutability": "pure",
      "type": "function",
      "constant": true
    },
    {
      "inputs": [
        {
          "internalType": "bytes32",
          "name": "label",
          "type": "bytes32"
        }
      ],
      "name": "getPrice",
      "outputs": [
        {
          "internalType": "uint256",
          "name": "price",
          "type": "uint256"
        }
      ],
      "stateMutability": "view",
      "type": "function",
      "constant": true
    }
  ],
  "bytecode": "0x6080604052600080546001600160a01b031990811673d915246ce4430cb893757bc5908990921344f02d17825560018054821673d73250f6c4a1cd2b604d59636ede5d1d3312af8317905560028054821673b6ed7644c69416d67b522e20bc294a9a9b405b3117905560038054821673167152a46e8616d4a6892a6afd8e52f060151c70179055600480549091166e0c2e074ec69a0dfb2997ba6c7d2e1e17905560058190556006556019600755604b6008553480156100be57600080fd5b50611df3806100ce6000396000f3fe608060405234801561001057600080fd5b506004361061010b5760003560e01c8063715018a6116100a2578063a8bf096111610071578063a8bf09611461023f578063affe39c114610252578063c7be210214610267578063e94a83861461027a578063f2fde38b1461028257600080fd5b8063715018a6146101fe5780638f0ba422146102065780638f4ffcb1146102195780639402b3331461022c57600080fd5b8063503f8fa5116100de578063503f8fa5146101a557806353a1f5e8146101b85780635e2e047b146101cb57806370720cba146101eb57600080fd5b8063150b7a02146101105780632aca3e7d1461014c57806331d98b3f146101615780634b7d092714610192575b600080fd5b61012e61011e366004611485565b630a85bd0160e11b949350505050565b6040516001600160e01b031990911681526020015b60405180910390f35b61015f61015a3660046114f0565b610295565b005b61018461016f366004611512565b60009081526009602052604090206001015490565b604051908152602001610143565b61015f6101a036600461152b565b61035b565b61015f6101b3366004611596565b61066e565b61015f6101c6366004611622565b610724565b6101de6101d9366004611678565b610835565b6040516101439190611727565b61015f6101f9366004611741565b610867565b61015f610976565b6101846102143660046117c8565b6109d0565b61015f610227366004611809565b6109f2565b61015f61023a36600461185c565b610a70565b61015f61024d3660046118b8565b610b7e565b61025a610c52565b604051610143919061192d565b61015f610275366004611967565b610c81565b61015f610d96565b61015f610290366004611a14565b610ffc565b3361029e610c52565b516001600160a01b031614806102c75750336102b8610c52565b602001516001600160a01b0316145b6102ec5760405162461bcd60e51b81526004016102e390611a31565b60405180910390fd5b6102f68183611a7c565b6064148015610303575060015b801561030d575060015b6103505760405162461bcd60e51b8152602060048201526014602482015273496e76616c69642073686172652076616c75657360601b60448201526064016102e3565b600791909155600855565b60408051600080516020611d9e833981519152602082015290810185905260009060600160408051808303601f190181528282528051602091820120875188830120600454928501829052928401839052935090916000916001600160a01b0316906302571be390606001604051602081830303815290604052805190602001206040518263ffffffff1660e01b81526004016103fa91815260200190565b602060405180830381865afa158015610417573d6000803e3d6000fd5b505050506040513d601f19601f8201168201806040525081019061043b9190611a94565b6001600160a01b0316146104a25760405162461bcd60e51b815260206004820152602860248201527f537562646f6d61696e206d757374206e6f74206265207265676973746572656460448201526720616c726561647960c01b60648201526084016102e3565b600086815260096020908152604091829020915188916104c491849101611aeb565b60405160208183030381529060405280519060200120146105395760405162461bcd60e51b815260206004820152602960248201527f446f6d61696e206d75737420626520617661696c61626c6520666f722072656760448201526834b9ba3930ba34b7b760b91b60648201526084016102e3565b60025460018201546040516323b872dd60e01b81526001600160a01b03888116600483015230602483015260448201929092529116906323b872dd906064016020604051808303816000875af1158015610597573d6000803e3d6000fd5b505050506040513d601f19601f820116820180604052508101906105bb9190611b86565b6105fd5760405162461bcd60e51b8152602060048201526013602482015272155cd95c881b5d5cdd081a185d99481c185a59606a1b60448201526064016102e3565b606460075482600101546106119190611ba8565b61061b9190611bc7565b6005546106289190611a7c565b600555600854600182015460649161063f91611ba8565b6106499190611bc7565b6006546106569190611a7c565b600655610665838387876110bb565b50505050505050565b33610677610c52565b516001600160a01b031614806106a0575033610691610c52565b602001516001600160a01b0316145b6106bc5760405162461bcd60e51b81526004016102e390611a31565b815160208084019190912060008181526009835260409081902090519192909183916106ea91849101611aeb565b604051602081830303815290604052805190602001201461071957835161071790829060208701906112f6565b505b600101919091555050565b3361072d610c52565b516001600160a01b03161480610756575033610747610c52565b602001516001600160a01b0316145b6107725760405162461bcd60e51b81526004016102e390611a31565b60008383604051610784929190611be9565b60408051918290038220600080516020611d9e8339815191526020840152908201819052915060009060600160408051808303601f1901815290829052805160209091012060048054630c4b7b8560e11b84529083018290526001600160a01b0386811660248501529193501690631896f70a906044015b600060405180830381600087803b15801561081657600080fd5b505af115801561082a573d6000803e3d6000fd5b505050505050505050565b60608484848460405160200161084e9493929190611c22565b6040516020818303038152906040529050949350505050565b33610870610c52565b516001600160a01b0316148061089957503361088a610c52565b602001516001600160a01b0316145b6108b55760405162461bcd60e51b81526004016102e390611a31565b600085856040516108c7929190611be9565b60408051918290038220600080516020611d9e8339815191526020840152908201819052915060009060600160408051601f19818403018152908290528051602090910120638b95dd7160e01b825291506001600160a01b03841690638b95dd719061093b90849089908990600401611c55565b600060405180830381600087803b15801561095557600080fd5b505af1158015610969573d6000803e3d6000fd5b5050505050505050505050565b3361097f610c52565b516001600160a01b031614806109a8575033610999610c52565b602001516001600160a01b0316145b6109c45760405162461bcd60e51b81526004016102e390611a31565b6109ce6000611262565b565b600082826040516109e2929190611be9565b6040518091039020905092915050565b6002546001600160a01b03838116911614610a435760405162461bcd60e51b81526020600482015260116024820152704d7573742070617920696e20307842544360781b60448201526064016102e3565b60006060600083806020019051810190610a5d9190611c7d565b919450925090506106658383898461035b565b33610a79610c52565b516001600160a01b03161480610aa2575033610a93610c52565b602001516001600160a01b0316145b610abe5760405162461bcd60e51b81526004016102e390611a31565b60008484604051610ad0929190611be9565b60408051918290038220600080516020611d9e8339815191526020840152908201819052915060009060600160408051808303601f1901815290829052805160209091012062d5fa2b60e81b8252600482018190526001600160a01b03868116602484015290925084169063d5fa2b0090604401600060405180830381600087803b158015610b5e57600080fd5b505af1158015610b72573d6000803e3d6000fd5b50505050505050505050565b33610b87610c52565b516001600160a01b03161480610bb0575033610ba1610c52565b602001516001600160a01b0316145b610bcc5760405162461bcd60e51b81526004016102e390611a31565b60008585604051610bde929190611be9565b60408051918290038220600080516020611d9e8339815191526020840152908201819052915060009060600160408051601f19818403018152908290528051602090910120631827356f60e11b825291506001600160a01b0384169063304e6ade9061093b90849089908990600401611d08565b610c5a61137a565b50604080518082019091526000546001600160a01b03908116825260015416602082015290565b33610c8a610c52565b516001600160a01b03161480610cb3575033610ca4610c52565b602001516001600160a01b0316145b610ccf5760405162461bcd60e51b81526004016102e390611a31565b60008787604051610ce1929190611be9565b60408051918290038220600080516020611d9e8339815191526020840152908201819052915060009060600160408051601f1981840301815290829052805160209091012063043c4ea360e21b825291506001600160a01b038416906310f13a8c90610d599084908b908b908b908b90600401611d22565b600060405180830381600087803b158015610d7357600080fd5b505af1158015610d87573d6000803e3d6000fd5b50505050505050505050505050565b60006005541180610da957506000600654115b610deb5760405162461bcd60e51b81526020600482015260136024820152726e6f7468696e6720746f20776974686472617760681b60448201526064016102e3565b600580546000918290556006805490839055600280549354929391926001600160a01b039283169263a9059cbb92911690610e269086611bc7565b6040516001600160e01b031960e085901b1681526001600160a01b03909216600483015260248201526044016020604051808303816000875af1158015610e71573d6000803e3d6000fd5b505050506040513d601f19601f82011682018060405250810190610e959190611b86565b610eb15760405162461bcd60e51b81526004016102e390611d5b565b600280546001546001600160a01b039182169263a9059cbb9290911690610ed89086611bc7565b6040516001600160e01b031960e085901b1681526001600160a01b03909216600483015260248201526044016020604051808303816000875af1158015610f23573d6000803e3d6000fd5b505050506040513d601f19601f82011682018060405250810190610f479190611b86565b610f635760405162461bcd60e51b81526004016102e390611d5b565b60025460035460405163a9059cbb60e01b81526001600160a01b0391821660048201526024810184905291169063a9059cbb906044016020604051808303816000875af1158015610fb8573d6000803e3d6000fd5b505050506040513d601f19601f82011682018060405250810190610fdc9190611b86565b610ff85760405162461bcd60e51b81526004016102e390611d5b565b5050565b33611005610c52565b516001600160a01b0316148061102e57503361101f610c52565b602001516001600160a01b0316145b61104a5760405162461bcd60e51b81526004016102e390611a31565b6001600160a01b0381166110af5760405162461bcd60e51b815260206004820152602660248201527f4f776e61626c653a206e6577206f776e657220697320746865207a65726f206160448201526564647265737360d01b60648201526084016102e3565b6110b881611262565b50565b600480546040516306ab592360e01b8152918201869052602482018590523060448301526001600160a01b0316906306ab5923906064016020604051808303816000875af1158015611111573d6000803e3d6000fd5b505050506040513d601f19601f820116820180604052508101906111359190611d84565b50604080516020810186905290810184905260009060600160408051808303601f1901815290829052805160209091012060048054630c4b7b8560e11b84529083018290526001600160a01b0385811660248501529193501690631896f70a90604401600060405180830381600087803b1580156111b257600080fd5b505af11580156111c6573d6000803e3d6000fd5b505060405162d5fa2b60e81b8152600481018490526001600160a01b0386811660248301528516925063d5fa2b009150604401600060405180830381600087803b15801561121357600080fd5b505af1158015611227573d6000803e3d6000fd5b505060048054604051635b0fc9c360e01b81529182018590526001600160a01b038781166024840152169250635b0fc9c391506044016107fc565b60005433906001600160a01b0316810361129657600080546001600160a01b0319166001600160a01b0384161790556112b2565b600180546001600160a01b0319166001600160a01b0384161790555b816001600160a01b0316816001600160a01b03167f8be0079c531659141344cd1fd0a4f28419497f9722a3daafe3b4186f6b6457e060405160405180910390a35050565b82805461130290611ab1565b90600052602060002090601f016020900481019282611324576000855561136a565b82601f1061133d57805160ff191683800117855561136a565b8280016001018555821561136a579182015b8281111561136a57825182559160200191906001019061134f565b50611376929150611398565b5090565b60405180604001604052806002906020820280368337509192915050565b5b808211156113765760008155600101611399565b6001600160a01b03811681146110b857600080fd5b634e487b7160e01b600052604160045260246000fd5b604051601f8201601f191681016001600160401b0381118282101715611400576114006113c2565b604052919050565b60006001600160401b03821115611421576114216113c2565b50601f01601f191660200190565b600082601f83011261144057600080fd5b813561145361144e82611408565b6113d8565b81815284602083860101111561146857600080fd5b816020850160208301376000918101602001919091529392505050565b6000806000806080858703121561149b57600080fd5b84356114a6816113ad565b935060208501356114b6816113ad565b92506040850135915060608501356001600160401b038111156114d857600080fd5b6114e48782880161142f565b91505092959194509250565b6000806040838503121561150357600080fd5b50508035926020909101359150565b60006020828403121561152457600080fd5b5035919050565b6000806000806080858703121561154157600080fd5b8435935060208501356001600160401b0381111561155e57600080fd5b61156a8782880161142f565b935050604085013561157b816113ad565b9150606085013561158b816113ad565b939692955090935050565b600080604083850312156115a957600080fd5b82356001600160401b038111156115bf57600080fd5b6115cb8582860161142f565b95602094909401359450505050565b60008083601f8401126115ec57600080fd5b5081356001600160401b0381111561160357600080fd5b60208301915083602082850101111561161b57600080fd5b9250929050565b60008060006040848603121561163757600080fd5b83356001600160401b0381111561164d57600080fd5b611659868287016115da565b909450925050602084013561166d816113ad565b809150509250925092565b6000806000806060858703121561168e57600080fd5b8435935060208501356001600160401b038111156116ab57600080fd5b6116b7878288016115da565b909450925050604085013561158b816113ad565b60005b838110156116e65781810151838201526020016116ce565b838111156116f5576000848401525b50505050565b600081518084526117138160208601602086016116cb565b601f01601f19169290920160200192915050565b60208152600061173a60208301846116fb565b9392505050565b60008060008060006080868803121561175957600080fd5b85356001600160401b038082111561177057600080fd5b61177c89838a016115da565b909750955060208801359450604088013591508082111561179c57600080fd5b506117a98882890161142f565b92505060608601356117ba816113ad565b809150509295509295909350565b600080602083850312156117db57600080fd5b82356001600160401b038111156117f157600080fd5b6117fd858286016115da565b90969095509350505050565b6000806000806080858703121561181f57600080fd5b843561182a816113ad565b9350602085013592506040850135611841816113ad565b915060608501356001600160401b038111156114d857600080fd5b6000806000806060858703121561187257600080fd5b84356001600160401b0381111561188857600080fd5b611894878288016115da565b90955093505060208501356118a8816113ad565b9150604085013561158b816113ad565b6000806000806000606086880312156118d057600080fd5b85356001600160401b03808211156118e757600080fd5b6118f389838a016115da565b9097509550602088013591508082111561190c57600080fd5b50611919888289016115da565b90945092505060408601356117ba816113ad565b60408101818360005b600281101561195e5781516001600160a01b0316835260209283019290910190600101611936565b50505092915050565b60008060008060008060006080888a03121561198257600080fd5b87356001600160401b038082111561199957600080fd5b6119a58b838c016115da565b909950975060208a01359150808211156119be57600080fd5b6119ca8b838c016115da565b909750955060408a01359150808211156119e357600080fd5b506119f08a828b016115da565b9094509250506060880135611a04816113ad565b8091505092959891949750929550565b600060208284031215611a2657600080fd5b813561173a816113ad565b6020808252818101527f4f776e61626c653a2063616c6c6572206973206e6f7420746865206f776e6572604082015260600190565b634e487b7160e01b600052601160045260246000fd5b60008219821115611a8f57611a8f611a66565b500190565b600060208284031215611aa657600080fd5b815161173a816113ad565b600181811c90821680611ac557607f821691505b602082108103611ae557634e487b7160e01b600052602260045260246000fd5b50919050565b600080835481600182811c915080831680611b0757607f831692505b60208084108203611b2657634e487b7160e01b86526022600452602486fd5b818015611b3a5760018114611b4b57611b78565b60ff19861689528489019650611b78565b60008a81526020902060005b86811015611b705781548b820152908501908301611b57565b505084890196505b509498975050505050505050565b600060208284031215611b9857600080fd5b8151801515811461173a57600080fd5b6000816000190483118215151615611bc257611bc2611a66565b500290565b600082611be457634e487b7160e01b600052601260045260246000fd5b500490565b8183823760009101908152919050565b81835281816020850137506000828201602090810191909152601f909101601f19169091010190565b848152606060208201526000611c3c606083018587611bf9565b905060018060a01b038316604083015295945050505050565b838152826020820152606060408201526000611c7460608301846116fb565b95945050505050565b600080600060608486031215611c9257600080fd5b8351925060208401516001600160401b03811115611caf57600080fd5b8401601f81018613611cc057600080fd5b8051611cce61144e82611408565b818152876020838501011115611ce357600080fd5b611cf48260208301602086016116cb565b809450505050604084015161166d816113ad565b838152604060208201526000611c74604083018486611bf9565b858152606060208201526000611d3c606083018688611bf9565b8281036040840152611d4f818587611bf9565b98975050505050505050565b6020808252600f908201526e1d1c985b9cd9995c8819985a5b1959608a1b604082015260600190565b600060208284031215611d9657600080fd5b505191905056fe93cdeb708b7545dc668eb9280176169d1c33cfd8ed6f04690a0bcc88a93fc4aea2646970667358221220eeafc7b474da0d0810090923d5aa623343b30b452c071e7fe0312125dc547caf64736f6c634300080d0033",
  "immutableReferences": {},
  "source": "// SPDX-License-Identifier: MIT\npragma solidity >=0.4.22 <0.9.0;\nimport \"./ENS.sol\";\nimport \"./Ownable.sol\";\nimport \"@openzeppelin/contracts/token/ERC721/IERC721Receiver.sol\";\nimport \"@openzeppelin/contracts/token/ERC20/IERC20.sol\";\n\n/**\n * @dev A basic interface for ENS resolvers.\n */\ninterface Resolver {\n  function supportsInterface(bytes4 interfaceID) external pure returns (bool);\n  function addr(bytes32 node) external view returns (address);\n  function setAddr(bytes32 node, address addr) external;\n  function setText(bytes32 node, string calldata key, string calldata value) external;\n  function setContenthash(bytes32 node, bytes calldata hash) external;\n  function setAddr(bytes32 node, uint coinType, bytes memory a) external;\n}\n\nabstract contract ApproveAndCallFallBack {\n  function receiveApproval(address from, uint256 tokens, address token, bytes memory data) virtual public;\n}\n\ncontract SubdomainStore is IERC721Receiver, Ownable, ApproveAndCallFallBack {\n\n  struct Domain {\n    string name;\n    uint price;\n  }\n\n  //.eth\n  bytes32 constant internal TLD_NODE = 0x93cdeb708b7545dc668eb9280176169d1c33cfd8ed6f04690a0bcc88a93fc4ae;\n\n  //0xbitcoin contract\n  address internal xbtc = 0xB6eD7644C69416d67B522e20bC294A9a9B405B31;\n\n  //0xbitcoin miners guild contract\n  address internal guild = 0x167152A46E8616D4a6892A6AfD8E52F060151C70;\n\n  //ens registry\n  ENS internal ens = ENS(0x00000000000C2E074eC69A0dFb2997BA6C7d2e1e);\n\n  //funds trackers\n  uint256 internal devFunds = 0;\n  uint256 internal guildFunds = 0;\n\n  //share %\n  uint256 internal devShare = 25;\n  uint256 internal guildShare = 75;\n  \n  mapping (bytes32 => Domain) internal domains;\n  \n  constructor() {\n    \n  }\n  \n  /**\n   * @dev Configures a domain for sale.\n   * @param name The name to configure.\n   * @param price The price in wei to charge for subdomain registrations\n   */\n  function configureDomain(string memory name, uint price) public onlyOwner {\n    bytes32 label = keccak256(bytes(name));\n    Domain storage domain = domains[label];\n\n    if (keccak256(abi.encodePacked(domain.name)) != label) {\n      // New listing\n      domain.name = name;\n    }\n\n    domain.price = price;\n  }\n\n  function setShares(uint256 _devShare, uint256 _guildShare) external onlyOwner {\n    require(_devShare+_guildShare==100 && _devShare >= 0 && _guildShare >= 0, \"Invalid share values\");\n    devShare = _devShare;\n    guildShare = _guildShare;\n  }\n\n  //Sets the address record for a resident ENS name\n  function setResidentAddress(string calldata name, address addr, Resolver resolver) external onlyOwner{  \n    bytes32 label = keccak256(bytes(name));\n    bytes32 domainNode = keccak256(abi.encodePacked(TLD_NODE, label));\n    resolver.setAddr(domainNode, addr);\n  }\n\n  //Sets the address record for a resident ENS name\n  function setResidentAddress(string calldata name, uint coinType, bytes memory a, Resolver resolver) external onlyOwner{  \n    bytes32 label = keccak256(bytes(name));\n    bytes32 domainNode = keccak256(abi.encodePacked(TLD_NODE, label));\n    resolver.setAddr(domainNode, coinType, a);\n  }\n\n  //Sets the text record for a resident ENS name\n  function setResidentText(string calldata name, string calldata key, string calldata value, Resolver resolver) external onlyOwner{ \n    bytes32 label = keccak256(bytes(name)); \n    bytes32 domainNode = keccak256(abi.encodePacked(TLD_NODE, label));\n    resolver.setText(domainNode, key, value);\n  }\n\n  //Sets the content record for a resident ENS name\n  function setResidentContenthash(string calldata name, bytes calldata hash, Resolver resolver) external onlyOwner{  \n    bytes32 label = keccak256(bytes(name));\n    bytes32 domainNode = keccak256(abi.encodePacked(TLD_NODE, label));\n    resolver.setContenthash(domainNode, hash);\n  }\n  \n  //Sets the resolver record for a resident ENS name\n  function setResidentResolver(string calldata name, address resolver) external onlyOwner {\n    bytes32 label = keccak256(bytes(name));\n    bytes32 domainNode = keccak256(abi.encodePacked(TLD_NODE, label));\n    ens.setResolver(domainNode, resolver);\n  }\n  \n  function doRegistration(bytes32 node, bytes32 label, address subdomainOwner, Resolver resolver) internal {\n    // Get the subdomain so we can configure it\n    ens.setSubnodeOwner(node, label, address(this));\n\n    bytes32 subnode = keccak256(abi.encodePacked(node, label));\n    // Set the subdomain's resolver\n    ens.setResolver(subnode, address(resolver));\n\n    // Set the address record on the resolver\n    resolver.setAddr(subnode, subdomainOwner);\n\n    // Pass ownership of the new subdomain to the registrant\n    ens.setOwner(subnode, subdomainOwner);    \n  }\n\n  /**\n   * @dev Registers a subdomain.\n   * @param label The label hash of the domain to register a subdomain of.\n   * @param subdomain The desired subdomain label.\n   * @param subdomainOwner The account that should own the newly configured subdomain.\n   */\n  function register(bytes32 label, string memory subdomain, address subdomainOwner, address resolver) public {\n    bytes32 domainNode = keccak256(abi.encodePacked(TLD_NODE, label));\n\n    bytes32 subdomainLabel = keccak256(bytes(subdomain));\n\n    // Subdomain must not be registered already.\n    require(ens.owner(keccak256(abi.encodePacked(domainNode, subdomainLabel))) == address(0), \"Subdomain must not be registered already\");\n    Domain storage domain = domains[label];\n\n    // Domain must be available for registration\n    require(keccak256(abi.encodePacked(domain.name)) == label, \"Domain must be available for registration\");\n\n    // The account that gets the subdomain also needs to pay\n    require(IERC20(xbtc).transferFrom(subdomainOwner, address(this), domain.price), \"User must have paid\");\n\n    devFunds = devFunds + (domain.price * devShare / 100);\n    guildFunds = guildFunds + (domain.price * guildShare / 100);\n\n    doRegistration(domainNode, subdomainLabel, subdomainOwner, Resolver(resolver));\n  }\n\n  function onERC721Received(address, address, uint256, bytes memory) public virtual override returns (bytes4) {\n    return this.onERC721Received.selector;\n  }\n\n  function receiveApproval(address from, uint256, address token, bytes memory data) public override {\n    require(token == xbtc, \"Must pay in 0xBTC\");\n\n    bytes32 label; \n    string memory subdomain;\n    address resolver;\n\n    (label, subdomain, resolver) = abi.decode(data, (bytes32, string, address));\n\n    register(label, subdomain, from, resolver);\n  }\n\n  function withdrawAndShare() public virtual {\n    require(devFunds > 0 || guildFunds > 0 ,'nothing to withdraw');\n\n    //prevent reentrancy\n    uint256 devFee = devFunds;\n    devFunds = 0;\n\n    uint256 guildFee = guildFunds;\n    guildFunds = 0;\n\n    require(IERC20(xbtc).transfer(fappablo, devFee/2),'transfer failed');\n    require(IERC20(xbtc).transfer(rms, devFee/2),'transfer failed');\n    require(IERC20(xbtc).transfer(guild, guildFee),'transfer failed');\n  }\n\n  //Helper function to encode the data needed for ApproveAndCall\n  function encodeData(bytes32 label, string calldata subdomain, address resolver) external pure returns (bytes memory data) {\n    return abi.encode(label, subdomain, resolver);\n  }\n\n  //Helper function to get the label hash\n  function encodeLabel(string calldata label) external pure returns (bytes32 encodedLabel) {\n    return keccak256(bytes(label));\n  }\n\n  function getPrice (bytes32 label) external view returns (uint256 price){\n    Domain storage data = domains[label];\n    return data.price;\n  }\n\n}\n",
  "sourcePath": "C:\\Users\\Pablo\\Documents\\GitHub\\0xbitcoin-subdomain-store\\contracts\\SubdomainStore.sol",
  "compiler": {
    "name": "solc",
    "version": "0.8.13+commit.abaa5c0e.Emscripten.clang"
  },
  "schemaVersion": "3.4.6",
  "updatedAt": "2022-04-08T10:01:29.764Z",
  "networkType": "ethereum",
  "devdoc": {
    "kind": "dev",
    "methods": {
      "configureDomain(string,uint256)": {
        "details": "Configures a domain for sale.",
        "params": {
          "name": "The name to configure.",
          "price": "The price in wei to charge for subdomain registrations"
        }
      },
      "owners()": {
        "details": "Returns the address of the current owner."
      },
      "register(bytes32,string,address,address)": {
        "details": "Registers a subdomain.",
        "params": {
          "label": "The label hash of the domain to register a subdomain of.",
          "subdomain": "The desired subdomain label.",
          "subdomainOwner": "The account that should own the newly configured subdomain."
        }
      },
      "renounceOwnership()": {
        "details": "Leaves the contract without owner. It will not be possible to call `onlyOwner` functions anymore. Can only be called by the current owner. NOTE: Renouncing ownership will leave the contract without an owner, thereby removing any functionality that is only available to the owner."
      },
      "transferOwnership(address)": {
        "details": "Transfers ownership of the contract to a new account (`newOwner`). Can only be called by the current owner."
      }
    },
    "version": 1
  },
  "userdoc": {
    "kind": "user",
    "methods": {},
    "version": 1
  }
}