{
  "contractName": "SubdomainStore",
  "abi": [
    {
      "inputs": [],
      "stateMutability": "nonpayable",
      "type": "constructor"
    },
    {
      "anonymous": false,
      "inputs": [
        {
          "indexed": true,
          "internalType": "address",
          "name": "previousOwner",
          "type": "address"
        },
        {
          "indexed": true,
          "internalType": "address",
          "name": "newOwner",
          "type": "address"
        }
      ],
      "name": "OwnershipTransferred",
      "type": "event"
    },
    {
      "inputs": [],
      "name": "owner",
      "outputs": [
        {
          "internalType": "address",
          "name": "",
          "type": "address"
        }
      ],
      "stateMutability": "view",
      "type": "function",
      "constant": true
    },
    {
      "inputs": [],
      "name": "renounceOwnership",
      "outputs": [],
      "stateMutability": "nonpayable",
      "type": "function"
    },
    {
      "inputs": [
        {
          "internalType": "address",
          "name": "newOwner",
          "type": "address"
        }
      ],
      "name": "transferOwnership",
      "outputs": [],
      "stateMutability": "nonpayable",
      "type": "function"
    },
    {
      "inputs": [
        {
          "internalType": "string",
          "name": "name",
          "type": "string"
        },
        {
          "internalType": "uint256",
          "name": "price",
          "type": "uint256"
        }
      ],
      "name": "configureDomain",
      "outputs": [],
      "stateMutability": "nonpayable",
      "type": "function"
    },
    {
      "inputs": [
        {
          "internalType": "string",
          "name": "name",
          "type": "string"
        },
        {
          "internalType": "address",
          "name": "resolver",
          "type": "address"
        }
      ],
      "name": "setResolver",
      "outputs": [],
      "stateMutability": "nonpayable",
      "type": "function"
    },
    {
      "inputs": [
        {
          "internalType": "bytes32",
          "name": "label",
          "type": "bytes32"
        },
        {
          "internalType": "string",
          "name": "subdomain",
          "type": "string"
        },
        {
          "internalType": "address",
          "name": "subdomainOwner",
          "type": "address"
        },
        {
          "internalType": "address",
          "name": "resolver",
          "type": "address"
        }
      ],
      "name": "register",
      "outputs": [],
      "stateMutability": "nonpayable",
      "type": "function"
    },
    {
      "inputs": [
        {
          "internalType": "address",
          "name": "",
          "type": "address"
        },
        {
          "internalType": "address",
          "name": "",
          "type": "address"
        },
        {
          "internalType": "uint256",
          "name": "",
          "type": "uint256"
        },
        {
          "internalType": "bytes",
          "name": "",
          "type": "bytes"
        }
      ],
      "name": "onERC721Received",
      "outputs": [
        {
          "internalType": "bytes4",
          "name": "",
          "type": "bytes4"
        }
      ],
      "stateMutability": "nonpayable",
      "type": "function"
    },
    {
      "inputs": [
        {
          "internalType": "address",
          "name": "from",
          "type": "address"
        },
        {
          "internalType": "uint256",
          "name": "",
          "type": "uint256"
        },
        {
          "internalType": "address",
          "name": "token",
          "type": "address"
        },
        {
          "internalType": "bytes",
          "name": "data",
          "type": "bytes"
        }
      ],
      "name": "receiveApproval",
      "outputs": [],
      "stateMutability": "nonpayable",
      "type": "function"
    },
    {
      "inputs": [
        {
          "internalType": "bytes32",
          "name": "label",
          "type": "bytes32"
        },
        {
          "internalType": "string",
          "name": "subdomain",
          "type": "string"
        },
        {
          "internalType": "address",
          "name": "resolver",
          "type": "address"
        }
      ],
      "name": "encodeData",
      "outputs": [
        {
          "internalType": "bytes",
          "name": "data",
          "type": "bytes"
        }
      ],
      "stateMutability": "pure",
      "type": "function",
      "constant": true
    },
    {
      "inputs": [
        {
          "internalType": "string",
          "name": "label",
          "type": "string"
        }
      ],
      "name": "encodeLabel",
      "outputs": [
        {
          "internalType": "bytes32",
          "name": "encodedLabel",
          "type": "bytes32"
        }
      ],
      "stateMutability": "pure",
      "type": "function",
      "constant": true
    },
    {
      "inputs": [
        {
          "internalType": "bytes32",
          "name": "label",
          "type": "bytes32"
        }
      ],
      "name": "getPrice",
      "outputs": [
        {
          "internalType": "uint256",
          "name": "price",
          "type": "uint256"
        }
      ],
      "stateMutability": "view",
      "type": "function",
      "constant": true
    }
  ],
  "bytecode": "0x6080604052600180546001600160a01b031990811673244aa29426fb6524760bd9acbb66ad53c5eb32ca17909155600280549091166e0c2e074ec69a0dfb2997ba6c7d2e1e17905534801561005357600080fd5b5061005d33610062565b6100b2565b600080546001600160a01b038381166001600160a01b0319831681178455604051919092169283917f8be0079c531659141344cd1fd0a4f28419497f9722a3daafe3b4186f6b6457e09190a35050565b610f89806100c16000396000f3fe608060405234801561001057600080fd5b50600436106100a95760003560e01c8063715018a611610071578063715018a614610163578063733ccaba1461016b5780638da5cb5b1461017e5780638f0ba422146101995780638f4ffcb1146101ac578063f2fde38b146101bf57600080fd5b8063150b7a02146100ae57806331d98b3f146100ea5780634b7d09271461011b578063503f8fa5146101305780635e2e047b14610143575b600080fd5b6100cc6100bc3660046109d8565b630a85bd0160e11b949350505050565b6040516001600160e01b031990911681526020015b60405180910390f35b61010d6100f8366004610a44565b60009081526003602052604090206001015490565b6040519081526020016100e1565b61012e610129366004610a5d565b6101d2565b005b61012e61013e366004610ac9565b6104a0565b610156610151366004610b57565b610532565b6040516100e19190610bdb565b61012e610564565b61012e610179366004610c0e565b61059a565b6000546040516001600160a01b0390911681526020016100e1565b61010d6101a7366004610c60565b61068b565b61012e6101ba366004610ca2565b6106ad565b61012e6101cd366004610cf6565b61072b565b604080517f93cdeb708b7545dc668eb9280176169d1c33cfd8ed6f04690a0bcc88a93fc4ae602082015290810185905260009060600160408051808303601f190181528282528051602091820120875188830120600254928501829052928401839052935090916000916001600160a01b0316906302571be390606001604051602081830303815290604052805190602001206040518263ffffffff1660e01b815260040161028391815260200190565b602060405180830381865afa1580156102a0573d6000803e3d6000fd5b505050506040513d601f19601f820116820180604052508101906102c49190610d1a565b6001600160a01b0316146103305760405162461bcd60e51b815260206004820152602860248201527f537562646f6d61696e206d757374206e6f74206265207265676973746572656460448201526720616c726561647960c01b60648201526084015b60405180910390fd5b6000868152600360209081526040918290209151889161035291849101610d71565b60405160208183030381529060405280519060200120146103c75760405162461bcd60e51b815260206004820152602960248201527f446f6d61696e206d75737420626520617661696c61626c6520666f722072656760448201526834b9ba3930ba34b7b760b91b6064820152608401610327565b60018054908201546040516323b872dd60e01b81526001600160a01b03888116600483015230602483015260448201929092529116906323b872dd906064016020604051808303816000875af1158015610425573d6000803e3d6000fd5b505050506040513d601f19601f820116820180604052508101906104499190610e0c565b61048b5760405162461bcd60e51b8152602060048201526013602482015272155cd95c881b5d5cdd081a185d99481c185a59606a1b6044820152606401610327565b610497838387876107c6565b50505050505050565b6000546001600160a01b031633146104ca5760405162461bcd60e51b815260040161032790610e2e565b815160208084019190912060008181526003835260409081902090519192909183916104f891849101610d71565b60405160208183030381529060405280519060200120146105275783516105259082906020870190610865565b505b600101919091555050565b60608484848460405160200161054b9493929190610e63565b6040516020818303038152906040529050949350505050565b6000546001600160a01b0316331461058e5760405162461bcd60e51b815260040161032790610e2e565b6105986000610815565b565b6000546001600160a01b031633146105c45760405162461bcd60e51b815260040161032790610e2e565b8151602080840191909120604080517f93cdeb708b7545dc668eb9280176169d1c33cfd8ed6f04690a0bcc88a93fc4ae9381019390935282018190529060009060600160408051808303601f19018152908290528051602090910120600254630c4b7b8560e11b8352600483018290526001600160a01b0386811660248501529193501690631896f70a906044015b600060405180830381600087803b15801561066d57600080fd5b505af1158015610681573d6000803e3d6000fd5b5050505050505050565b6000828260405161069d929190610eac565b6040518091039020905092915050565b6001546001600160a01b038381169116146106fe5760405162461bcd60e51b81526020600482015260116024820152704d7573742070617920696e20307842544360781b6044820152606401610327565b600060606000838060200190518101906107189190610ebc565b91945092509050610497838389846101d2565b6000546001600160a01b031633146107555760405162461bcd60e51b815260040161032790610e2e565b6001600160a01b0381166107ba5760405162461bcd60e51b815260206004820152602660248201527f4f776e61626c653a206e6577206f776e657220697320746865207a65726f206160448201526564647265737360d01b6064820152608401610327565b6107c381610815565b50565b6002546040516305ef2c7f60e41b815260048101869052602481018590526001600160a01b03848116604483015283811660648301526000608483015290911690635ef2c7f09060a401610653565b600080546001600160a01b038381166001600160a01b0319831681178455604051919092169283917f8be0079c531659141344cd1fd0a4f28419497f9722a3daafe3b4186f6b6457e09190a35050565b82805461087190610d37565b90600052602060002090601f01602090048101928261089357600085556108d9565b82601f106108ac57805160ff19168380011785556108d9565b828001600101855582156108d9579182015b828111156108d95782518255916020019190600101906108be565b506108e59291506108e9565b5090565b5b808211156108e557600081556001016108ea565b6001600160a01b03811681146107c357600080fd5b634e487b7160e01b600052604160045260246000fd5b604051601f8201601f1916810167ffffffffffffffff8111828210171561095257610952610913565b604052919050565b600067ffffffffffffffff82111561097457610974610913565b50601f01601f191660200190565b600082601f83011261099357600080fd5b81356109a66109a18261095a565b610929565b8181528460208386010111156109bb57600080fd5b816020850160208301376000918101602001919091529392505050565b600080600080608085870312156109ee57600080fd5b84356109f9816108fe565b93506020850135610a09816108fe565b925060408501359150606085013567ffffffffffffffff811115610a2c57600080fd5b610a3887828801610982565b91505092959194509250565b600060208284031215610a5657600080fd5b5035919050565b60008060008060808587031215610a7357600080fd5b84359350602085013567ffffffffffffffff811115610a9157600080fd5b610a9d87828801610982565b9350506040850135610aae816108fe565b91506060850135610abe816108fe565b939692955090935050565b60008060408385031215610adc57600080fd5b823567ffffffffffffffff811115610af357600080fd5b610aff85828601610982565b95602094909401359450505050565b60008083601f840112610b2057600080fd5b50813567ffffffffffffffff811115610b3857600080fd5b602083019150836020828501011115610b5057600080fd5b9250929050565b60008060008060608587031215610b6d57600080fd5b84359350602085013567ffffffffffffffff811115610b8b57600080fd5b610b9787828801610b0e565b9094509250506040850135610abe816108fe565b60005b83811015610bc6578181015183820152602001610bae565b83811115610bd5576000848401525b50505050565b6020815260008251806020840152610bfa816040850160208701610bab565b601f01601f19169190910160400192915050565b60008060408385031215610c2157600080fd5b823567ffffffffffffffff811115610c3857600080fd5b610c4485828601610982565b9250506020830135610c55816108fe565b809150509250929050565b60008060208385031215610c7357600080fd5b823567ffffffffffffffff811115610c8a57600080fd5b610c9685828601610b0e565b90969095509350505050565b60008060008060808587031215610cb857600080fd5b8435610cc3816108fe565b9350602085013592506040850135610cda816108fe565b9150606085013567ffffffffffffffff811115610a2c57600080fd5b600060208284031215610d0857600080fd5b8135610d13816108fe565b9392505050565b600060208284031215610d2c57600080fd5b8151610d13816108fe565b600181811c90821680610d4b57607f821691505b602082108103610d6b57634e487b7160e01b600052602260045260246000fd5b50919050565b600080835481600182811c915080831680610d8d57607f831692505b60208084108203610dac57634e487b7160e01b86526022600452602486fd5b818015610dc05760018114610dd157610dfe565b60ff19861689528489019650610dfe565b60008a81526020902060005b86811015610df65781548b820152908501908301610ddd565b505084890196505b509498975050505050505050565b600060208284031215610e1e57600080fd5b81518015158114610d1357600080fd5b6020808252818101527f4f776e61626c653a2063616c6c6572206973206e6f7420746865206f776e6572604082015260600190565b848152606060208201528260608201528284608083013760008184016080908101919091526001600160a01b03929092166040820152601f909201601f19169091010192915050565b8183823760009101908152919050565b600080600060608486031215610ed157600080fd5b83519250602084015167ffffffffffffffff811115610eef57600080fd5b8401601f81018613610f0057600080fd5b8051610f0e6109a18261095a565b818152876020838501011115610f2357600080fd5b610f34826020830160208601610bab565b8094505050506040840151610f48816108fe565b80915050925092509256fea2646970667358221220437aeb9bbf77404183635d4d9941331c2c4df5dc1aa1250f2f17995a546aa77864736f6c634300080d0033",
  "immutableReferences": {},
  "source": "// SPDX-License-Identifier: MIT\npragma solidity >=0.4.22 <0.9.0;\nimport \"./ENS.sol\";\nimport \"@openzeppelin/contracts/access/Ownable.sol\";\nimport \"@openzeppelin/contracts/token/ERC721/IERC721Receiver.sol\";\nimport \"@openzeppelin/contracts/token/ERC20/IERC20.sol\";\n\n/**\n * @dev A basic interface for ENS resolvers.\n */\ninterface Resolver {\n  function supportsInterface(bytes4 interfaceID) external pure returns (bool);\n  function addr(bytes32 node) external view returns (address);\n  function setAddr(bytes32 node, address addr) external;\n}\n\nabstract contract ApproveAndCallFallBack {\n  function receiveApproval(address from, uint256 tokens, address token, bytes memory data) virtual public;\n}\n\ncontract SubdomainStore is IERC721Receiver, Ownable, ApproveAndCallFallBack {\n\n  struct Domain {\n    string name;\n    uint price;\n  }\n\n  bytes32 constant internal TLD_NODE = 0x93cdeb708b7545dc668eb9280176169d1c33cfd8ed6f04690a0bcc88a93fc4ae;\n  address internal xbtc = 0x244aA29426fb6524760bD9AcbB66ad53C5EB32CA;\n  ENS internal ens = ENS(0x00000000000C2E074eC69A0dFb2997BA6C7d2e1e);\n  \n  mapping (bytes32 => Domain) internal domains;\n  \n  constructor() {\n    \n  }\n  \n  /**\n   * @dev Configures a domain for sale.\n   * @param name The name to configure.\n   * @param price The price in wei to charge for subdomain registrations\n   */\n  function configureDomain(string memory name, uint price) public onlyOwner {\n    bytes32 label = keccak256(bytes(name));\n    Domain storage domain = domains[label];\n\n    if (keccak256(abi.encodePacked(domain.name)) != label) {\n      // New listing\n      domain.name = name;\n    }\n\n    domain.price = price;\n  }\n\n  function setResolver(string memory name, address resolver) public onlyOwner {\n    bytes32 label = keccak256(bytes(name));\n    bytes32 node = keccak256(abi.encodePacked(TLD_NODE, label));\n    ens.setResolver(node, resolver);\n  }\n  \n  function doRegistration(bytes32 node, bytes32 label, address subdomainOwner, Resolver resolver) internal {\n    ens.setSubnodeRecord(node, label, subdomainOwner, address(resolver), 0);\n  }\n\n  /**\n   * @dev Registers a subdomain.\n   * @param label The label hash of the domain to register a subdomain of.\n   * @param subdomain The desired subdomain label.\n   * @param subdomainOwner The account that should own the newly configured subdomain.\n   */\n  function register(bytes32 label, string memory subdomain, address subdomainOwner, address resolver) public {\n    bytes32 domainNode = keccak256(abi.encodePacked(TLD_NODE, label));\n\n    bytes32 subdomainLabel = keccak256(bytes(subdomain));\n\n    // Subdomain must not be registered already.\n    require(ens.owner(keccak256(abi.encodePacked(domainNode, subdomainLabel))) == address(0), \"Subdomain must not be registered already\");\n    Domain storage domain = domains[label];\n\n    // Domain must be available for registration\n    require(keccak256(abi.encodePacked(domain.name)) == label, \"Domain must be available for registration\");\n\n    // The account that gets the subdomain also needs to pay\n    require(IERC20(xbtc).transferFrom(subdomainOwner, address(this), domain.price), \"User must have paid\");\n\n    doRegistration(domainNode, subdomainLabel, subdomainOwner, Resolver(resolver));\n  }\n\n  function onERC721Received(address, address, uint256, bytes memory) public virtual override returns (bytes4) {\n    return this.onERC721Received.selector;\n  }\n\n  function receiveApproval(address from, uint256, address token, bytes memory data) public override {\n    require(token == xbtc, \"Must pay in 0xBTC\");\n\n    bytes32 label; \n    string memory subdomain;\n    address resolver;\n\n    (label, subdomain, resolver) = abi.decode(data, (bytes32, string, address));\n\n    register(label, subdomain, from, resolver);\n  }\n\n  //Helper function to encode the data needed for ApproveAndCall\n  function encodeData(bytes32 label, string calldata subdomain, address resolver) external pure returns (bytes memory data) {\n    return abi.encode(label, subdomain, resolver);\n  }\n\n  //Helper function to get the label hash\n  function encodeLabel(string calldata label) external pure returns (bytes32 encodedLabel) {\n    return keccak256(bytes(label));\n  }\n\n  function getPrice (bytes32 label) external view returns (uint256 price){\n    Domain storage data = domains[label];\n    return data.price;\n  }\n\n}\n",
  "sourcePath": "C:\\Users\\Pablo\\Documents\\GitHub\\0xbitcoin-subdomain-store\\contracts\\SubdomainStore.sol",
  "compiler": {
    "name": "solc",
    "version": "0.8.13+commit.abaa5c0e.Emscripten.clang"
  },
  "schemaVersion": "3.4.6",
  "updatedAt": "2022-03-31T15:35:26.877Z",
  "networkType": "ethereum",
  "devdoc": {
    "kind": "dev",
    "methods": {
      "configureDomain(string,uint256)": {
        "details": "Configures a domain for sale.",
        "params": {
          "name": "The name to configure.",
          "price": "The price in wei to charge for subdomain registrations"
        }
      },
      "owner()": {
        "details": "Returns the address of the current owner."
      },
      "register(bytes32,string,address,address)": {
        "details": "Registers a subdomain.",
        "params": {
          "label": "The label hash of the domain to register a subdomain of.",
          "subdomain": "The desired subdomain label.",
          "subdomainOwner": "The account that should own the newly configured subdomain."
        }
      },
      "renounceOwnership()": {
        "details": "Leaves the contract without owner. It will not be possible to call `onlyOwner` functions anymore. Can only be called by the current owner. NOTE: Renouncing ownership will leave the contract without an owner, thereby removing any functionality that is only available to the owner."
      },
      "transferOwnership(address)": {
        "details": "Transfers ownership of the contract to a new account (`newOwner`). Can only be called by the current owner."
      }
    },
    "version": 1
  },
  "userdoc": {
    "kind": "user",
    "methods": {},
    "version": 1
  }
}